{
    "abi": [
        {
            "type": "fallback",
            "stateMutability": "payable"
        },
        {
            "type": "receive",
            "stateMutability": "payable"
        },
        {
            "type": "function",
            "name": "balance",
            "inputs": [],
            "outputs": [
                {
                    "name": "",
                    "type": "uint256",
                    "internalType": "uint256"
                }
            ],
            "stateMutability": "view"
        },
        {
            "type": "function",
            "name": "fallbacks",
            "inputs": [],
            "outputs": [
                {
                    "name": "",
                    "type": "uint256",
                    "internalType": "uint256"
                }
            ],
            "stateMutability": "view"
        },
        {
            "type": "function",
            "name": "testTransact",
            "inputs": [],
            "outputs": [],
            "stateMutability": "nonpayable"
        },
        {
            "type": "function",
            "name": "testView",
            "inputs": [],
            "outputs": [
                {
                    "name": "",
                    "type": "string",
                    "internalType": "string"
                }
            ],
            "stateMutability": "pure"
        },
        {
            "type": "function",
            "name": "value",
            "inputs": [],
            "outputs": [
                {
                    "name": "",
                    "type": "uint256",
                    "internalType": "uint256"
                }
            ],
            "stateMutability": "view"
        }
    ],
    "bytecode": "0x60806040525f5f555f6001555f6002553480156019575f5ffd5b506101f4806100275f395ff3fe60806040526004361061004d575f3560e01c80633fa4f245146100805780634dec9b57146100a7578063a3c1131c146100d9578063b69ef8a8146100ef578063c78052c6146101045761006b565b3661006b573460025f8282546100639190610142565b925050819055005b60018054905f61007a8361015b565b91905055005b34801561008b575f5ffd5b506100945f5481565b6040519081526020015b60405180910390f35b3480156100b2575f5ffd5b5060408051808201825260048152637669657760e01b6020820152905161009e9190610173565b3480156100e4575f5ffd5b506100ed610119565b005b3480156100fa575f5ffd5b5061009460025481565b34801561010f575f5ffd5b5061009460015481565b5f805490806101278361015b565b9190505550565b634e487b7160e01b5f52601160045260245ffd5b808201808211156101555761015561012e565b92915050565b5f6001820161016c5761016c61012e565b5060010190565b602081525f82518060208401525f5b8181101561019f5760208186018101516040868401015201610182565b505f604082850101526040601f19601f8301168401019150509291505056fea26469706673582212201efc6f15d62b180376dff43067933b039bf0c95afb17035f315e505ea5491c2164736f6c634300081b0033",
    "methodIdentifiers": {
        "balance()": "b69ef8a8",
        "fallbacks()": "c78052c6",
        "testTransact()": "a3c1131c",
        "testView()": "4dec9b57",
        "value()": "3fa4f245"
    },
    "id": 0
}