{
    "abi": [
        {
            "type": "fallback",
            "stateMutability": "payable"
        },
        {
            "type": "receive",
            "stateMutability": "payable"
        },
        {
            "type": "function",
            "name": "testTransact",
            "inputs": [],
            "outputs": [],
            "stateMutability": "nonpayable"
        },
        {
            "type": "function",
            "name": "testView",
            "inputs": [],
            "outputs": [],
            "stateMutability": "pure"
        }
    ],
    "bytecode": {
        "object": "0x60806040525f5f553480156011575f5ffd5b506101a88061001f5f395ff3fe60806040526004361061002c575f3560e01c80634dec9b57146100a5578063a3c1131c146100bb5761006d565b3661006d5760405162461bcd60e51b815260206004820152600c60248201526b2932b1b2b4bb32a2b93937b960a11b60448201526064015b60405180910390fd5b60405162461bcd60e51b815260206004820152600d60248201526c2330b6363130b1b5a2b93937b960991b6044820152606401610064565b3480156100b0575f5ffd5b506100b96100cf565b005b3480156100c6575f5ffd5b506100b9610103565b60405162461bcd60e51b81526020600482015260096024820152682b34b2bba2b93937b960b91b6044820152606401610064565b5f805490806101118361014e565b909155505060405162461bcd60e51b815260206004820152600d60248201526c2a3930b739b0b1ba22b93937b960991b6044820152606401610064565b5f6001820161016b57634e487b7160e01b5f52601160045260245ffd5b506001019056fea2646970667358221220a110aec20225ec22bc6c940385cdaf5057dc396e67f2e5e5403e024bd1ce10e064736f6c634300081b0033",
        "linkReferences": {}
    },
    "methodIdentifiers": {
        "testTransact()": "a3c1131c",
        "testView()": "4dec9b57"
    },
    "id": 1
}