{
    "abi": [
        {
            "type": "fallback",
            "stateMutability": "payable"
        },
        {
            "type": "receive",
            "stateMutability": "payable"
        },
        {
            "type": "function",
            "name": "testTransact",
            "inputs": [],
            "outputs": [],
            "stateMutability": "nonpayable"
        },
        {
            "type": "function",
            "name": "testView",
            "inputs": [],
            "outputs": [],
            "stateMutability": "pure"
        },
        {
            "type": "error",
            "name": "FallbackError",
            "inputs": []
        },
        {
            "type": "error",
            "name": "ReceiveError",
            "inputs": []
        },
        {
            "type": "error",
            "name": "TransactError",
            "inputs": []
        },
        {
            "type": "error",
            "name": "ViewError",
            "inputs": []
        }
    ],
    "bytecode": "0x60806040525f5f553480156011575f5ffd5b5061011e8061001f5f395ff3fe6080604052600436106028575f3560e01c80634dec9b5714605e578063a3c1131c146071576045565b36604557604051635a4846ad60e01b815260040160405180910390fd5b60405163067d529960e11b815260040160405180910390fd5b3480156068575f5ffd5b50606f6082565b005b348015607b575f5ffd5b50606f609b565b60405163e957102160e01b815260040160405180910390fd5b5f8054908060a78360c5565b91905055506040516339a1f83360e01b815260040160405180910390fd5b5f6001820160e157634e487b7160e01b5f52601160045260245ffd5b506001019056fea26469706673582212206574db7cb3f28d7c30ba8ef49831e21e360eb560661d578e07c71b96754bfc6b64736f6c634300081b0033",
    "methodIdentifiers": {
        "testTransact()": "a3c1131c",
        "testView()": "4dec9b57"
    },
    "id": 0
}